:020000040800F2
:10000000005000200D150008791400087F14000826
:10001000851400088B1400089114000800000000EB
:10002000000000000000000000000000971400081D
:10003000A314000800000000AF140008BB1400085F
:1000400055150008551500085515000855150008E8
:1000500055150008551500085515000855150008D8
:1000600055150008551500085515000855150008C8
:1000700055150008551500085515000855150008B8
:1000800055150008551500085515000855150008A8
:100090005515000855150008551500085515000898
:1000A0005515000855150008551500085515000888
:1000B000C914000855150008551500085515000805
:1000C0005515000855150008551500085515000868
:1000D0005515000855150008551500085515000858
:1000E00055150008551500085515000800000000BA
:1000F0000000000000000000000000000000000000
:0C01000000000000000000005FF808F1A3
:10010C0010B5054C237833B9044B13B10448AFF345
:10011C0000800123237010BD2C0000200000000083
:10012C00AC2B000808B5034B1BB103490348AFF3D4
:10013C00008008BD0000000030000020AC2B00083F
:10014C0080B582B000AF78607B68092B00F2948197
:10015C0001A252F823F000BF8D010008D90100085C
:10016C002502000871020008BD02000809030008FE
:10017C0055030008A1030008ED030008390400082A
:10018C0000220821BF4801F0ECFC00220421BD48EC
:10019C0001F0E7FC00224FF48061BA4801F0E1FC69
:1001AC0000221021B84801F0DCFC00220821B748DD
:1001BC0001F0D7FC00222021B44801F0D2FC01222E
:1001CC004FF40051B14801F0CCFC56E1012208215A
:1001DC00AC4801F0C6FC00220421AA4801F0C1FC85
:1001EC0000224FF48061A74801F0BBFC01221021D2
:1001FC00A54801F0B6FC01220821A44801F0B1FC8D
:10020C0001222021A14801F0ACFC01224FF4005145
:10021C009E4801F0A6FC30E100220821994801F02B
:10022C00A0FC00220421974801F09BFC01224FF412
:10023C008061944801F095FC00221021924801F055
:10024C0090FC00220821914801F08BFC0122202116
:10025C008E4801F086FC00224FF400518B4801F0CF
:10026C0080FC0AE100220821864801F07AFC002279
:10027C000421844801F075FC00224FF48061814810
:10028C0001F06FFC002210217F4801F06AFC012272
:10029C0008217E4801F065FC012220217B4801F0F9
:1002AC0060FC00224FF40051784801F05AFCE4E065
:1002BC0001220821734801F054FC002204217148EA
:1002CC0001F04FFC00224FF480616E4801F049FCB4
:1002DC00012210216C4801F044FC012208216B48DA
:1002EC0001F03FFC00222021684801F03AFC00227A
:1002FC004FF40051654801F034FCBEE000220821A7
:10030C00604801F02EFC012204215E4801F029FC1A
:10031C0000224FF480615B4801F023FC0022102185
:10032C00594801F01EFC01220821584801F019FC23
:10033C0000222021554801F014FC00224FF40051FA
:10034C00524801F00EFC98E0002208214D4801F0C3
:10035C0008FC012204214B4801F003FC00224FF45D
:10036C008061484801F0FDFB00221021464801F055
:10037C00F8FB00220821454801F0F3FB0022202164
:10038C00424801F0EEFB00224FF400513F4801F0CF
:10039C00E8FB72E0002208213A4801F0E2FB00225F
:1003AC000421384801F0DDFB00224FF48061354810
:1003BC0001F0D7FB01221021334801F0D2FB0122BE
:1003CC000821324801F0CDFB012220212F4801F0F9
:1003DC00C8FB01224FF400512C4801F0C2FB4CE049
:1003EC0000220821274801F0BCFB002204212548EB
:1003FC0001F0B7FB00224FF48061224801F0B1FB01
:10040C0000221021204801F0ACFB002208211F48DB
:10041C0001F0A7FB002220211C4801F0A2FB0022C6
:10042C004FF40051194801F09CFB26E000220821F2
:10043C00144801F096FB00220421124801F091FBB4
:10044C0000224FF480610F4801F08BFB0022102139
:10045C000D4801F086FB012208210C4801F081FBBC
:10046C0000222021094801F07CFB00224FF40051AE
:10047C00064801F076FB00E000BF00BF0837BD4620
:10048C0080BD00BF0008014000100140000C01407D
:10049C0080B582B000AF78607B68092B00F2B28126
:1004AC0001A252F823F000BFDD0400082F0500085C
:1004BC0081050008D305000825060008770600080A
:1004CC00C90600081B0700086D070008BF070008D5
:1004DC0000221021CE4801F044FB00224FF4804151
:1004EC00CB4801F03EFB00224FF48061C84801F07C
:1004FC0038FB00224FF40041C54801F032FB0022CA
:10050C004FF48071C34801F02CFB00220221C0483B
:10051C0001F027FB01224FF40071BE4801F021FBD2
:10052C0071E101221021BA4801F01BFB00224FF4AB
:10053C008041B74801F015FB00224FF48061B448AC
:10054C0001F00FFB01224FF40041B14801F009FB0F
:10055C0001224FF48071AF4801F003FB012202210C
:10056C00AB4801F0FEFA01224FF40071A94801F0EA
:10057C00F8FA48E100221021A54801F0F2FA002215
:10058C004FF48041A24801F0ECFA01224FF4806153
:10059C009F4801F0E6FA00224FF400419C4801F01C
:1005AC00E0FA00224FF480719A4801F0DAFA012245
:1005BC000221974801F0D5FA00224FF400719548BA
:1005CC0001F0CFFA1FE100221021914801F0C9FA85
:1005DC0000224FF480418E4801F0C3FA00224FF400
:1005EC0080618B4801F0BDFA00224FF4004188482D
:1005FC0001F0B7FA01224FF48071864801F0B1FA8C
:10060C0001220221824801F0ACFA00224FF4007161
:10061C00804801F0A6FAF6E0012210217C4801F096
:10062C00A0FA00224FF48041794801F09AFA002296
:10063C004FF48061764801F094FA01224FF40041A6
:10064C00734801F08EFA01224FF48071714801F069
:10065C0088FA002202216E4801F083FA00224FF43E
:10066C0000716C4801F07DFACDE000221021684841
:10067C0001F077FA01224FF48041654801F071FADC
:10068C0000224FF48061624801F06BFA00224FF4B3
:10069C0000415F4801F065FA01224FF480715D481A
:1006AC0001F05FFA00220221594801F05AFA0022A7
:1006BC004FF40071574801F054FAA4E000221021C5
:1006CC00534801F04EFA01224FF48041504801F09A
:1006DC0048FA00224FF480614D4801F042FA0022A2
:1006EC004FF400414A4801F03CFA00224FF480716B
:1006FC00484801F036FA00220221454801F031FA4F
:10070C0000224FF40071434801F02BFA7BE00022E9
:10071C0010213F4801F025FA00224FF480413C485B
:10072C0001F01FFA00224FF48061394801F019FAE8
:10073C0001224FF40041364801F013FA01224FF424
:10074C008071344801F00DFA01220221304801F089
:10075C0008FA01224FF400712E4801F002FA52E01F
:10076C00002210212A4801F0FCF900224FF48041AC
:10077C00274801F0F6F900224FF48061244801F07B
:10078C00F0F900224FF40041214801F0EAF900226F
:10079C004FF480711F4801F0E4F9002202211C483B
:1007AC0001F0DFF900224FF400711A4801F0D9F979
:1007BC0029E000221021164801F0D3F900224FF451
:1007CC008041134801F0CDF900224FF480611048AC
:1007DC0001F0C7F900224FF400410D4801F0C1F9B6
:1007EC0001224FF480710B4801F0BBF90022022169
:1007FC00074801F0B6F900224FF40071054801F0EA
:10080C00B0F900E000BF00BF0837BD4680BD00BF97
:10081C00000C01400008014080B582B000AF786048
:10082C007A680E4B83FB02139910D317C91A0B4627
:10083C009B000B445B00D11A0846FFF781FC7B68D8
:10084C00064A82FB03129210DB17D31A1846FFF7E5
:10085C001FFE00BF0837BD4680BD00BF67666666D9
:10086C0080B500AF664B1B78022B2DD0022B3DDCE4
:10087C00002B02D0012B0DD038E0002000F02CF919
:10088C000346002B2DD05E4B01221A705D4B0122CA
:10089C001A6026E0002000F01FF90346002B06D159
:1008AC00574B00221A70574B00221A601BE0002095
:1008BC0000F02CF90346002B15D0514B02221A7074
:1008CC00504B01221A600EE0002000F005F903469F
:1008DC00002B0AD14A4B00221A704A4B00221A6094
:1008EC0003E000BF02E000BF00E000BF464B1B78F6
:1008FC00022B2DD0022B3DDC002B02D0012B0DD076
:10090C0038E0012000F0E8F80346002B2DD03E4BD8
:10091C0001221A703B4B01225A6026E0012000F0A4
:10092C00DBF80346002B06D1374B00221A70354BEF
:10093C0000225A601BE0012000F0E8F80346002B6F
:10094C0015D0314B02221A702E4B01225A600EE048
:10095C00012000F0C1F80346002B0AD12A4B0022DB
:10096C001A70284B00225A6003E000BF02E000BF5F
:10097C0000E000BF254B1B78022B2DD0022B3DDC59
:10098C00002B02D0012B0DD038E0022000F0A4F88F
:10099C000346002B2DD01D4B01221A70194B01223E
:1009AC009A6026E0022000F097F80346002B06D14F
:1009BC00164B00221A70134B00229A601BE0022087
:1009CC0000F0A4F80346002B15D0104B02221A702D
:1009DC000C4B01229A600EE0022000F07DF80346D9
:1009EC00002B0AD1094B00221A70064B00229A6088
:1009FC0003E000BF02E000BF00E000BF00BF80BD0D
:100A0C004800002054000020490000204A0000202B
:100A1C0090B583B000AF0023FB7146E0FA79FB7907
:100A2C002649895C264AD154FB79264A32F8133080
:100A3C00FC791946244801F07DF803461A461F4BF1
:100A4C001A55FB791D4AD25CFB791D49CB5C9A4245
:100A5C0005D1FA79FB791949895C1C4AD154FB7987
:100A6C001A4AD35C002B14D1FB79194A32F8133093
:100A7C00632B09D8FB79164A32F81320013291B254
:100A8C00134A22F813100DE0FB79124A0121D154BC
:100A9C0008E0FB790E4A002122F81310FB790D4A6D
:100AAC000021D154FB790133FB71FB79022BB5D9B1
:100ABC0000BF00BF0C37BD4690BD00BF000000203A
:100ACC0004000020080000200010014060000020FD
:100ADC00680000206400002080B483B000AF03469F
:100AEC00FB71FB79022B01D9002307E0FB79064A45
:100AFC00D35C002B0CBF01230023DBB218460C3750
:100B0C00BD4680BC704700BF6000002080B483B03D
:100B1C0000AF0346FB71FB79022B01D9FF2307E0E1
:100B2C00FB79064AD35C012B0CBF01230023DBB2FB
:100B3C0018460C37BD4680BC704700BF64000020CF
:100B4C0080B500AF00F002FD00F00CF800F098F852
:100B5C0000F04AF8024801F049FC00F09BF9FCE770
:100B6C008C00002080B590B000AF07F1180328224C
:100B7C000021184602F00CF83B1D00221A605A6046
:100B8C009A60DA601A610223BB610123BB621023F5
:100B9C00FB6202237B630023BB634FF46013FB6394
:100BAC0007F11803184600F0F5FF0346002B01D09F
:100BBC0000F0ECF80F237B600223BB600023FB608A
:100BCC004FF480633B6100237B613B1D022118467F
:100BDC0001F060FA0346002B01D000F0D7F800BFFB
:100BEC004037BD4680BD000080B586B000AF07F130
:100BFC00080300221A605A609A60DA603B460022B1
:100C0C001A605A601D4B4FF080421A601B4B4FF616
:100C1C00FF125A60194B00229A60184B0922DA60B5
:100C2C00164B00221A61154B00229A61134801F0F1
:100C3C008DFB0346002B01D000F0A8F84FF4805335
:100C4C00BB6007F1080319460C4801F029FD034667
:100C5C00002B01D000F09AF800233B6000237B604E
:100C6C003B461946054801F0FFFE0346002B01D018
:100C7C0000F08CF800BF1837BD4680BD8C000020FA
:100C8C0080B588B000AF07F1100300221A605A60DB
:100C9C009A60DA60394B9B69384A43F010039361D0
:100CAC00364B9B6903F01003FB60FB68334B9B696D
:100CBC00324A43F004039361304B9B6903F0040305
:100CCC00BB60BB682D4B9B692C4A43F008039361B6
:100CDC002A4B9B6903F008037B607B68002240F27F
:100CEC00AC71274800F03DFF00224FF424712548D9
:100CFC0000F037FF00224FF67E41234800F031FF11
:100D0C000D233B6100237B610023BB6107F11003C2
:100D1C0019461C4800F08AFD40F2AC733B6101237C
:100D2C007B610023BB610223FB6107F110031946B1
:100D3C00134800F07BFD4FF424733B6101237B616E
:100D4C000023BB610223FB6107F1100319460D4818
:100D5C0000F06CFD4FF67E433B6101237B61002369
:100D6C00BB610223FB6107F110031946064800F032
:100D7C005DFD00BF2037BD4680BD00BF00100240A6
:100D8C000008014000100140000C014080B400AF8D
:100D9C0072B600BFFEE7000080B500AF104B1B68B9
:100DAC00012B1AD1012204210E4800F0DAFE002298
:100DBC0080210D4800F0D5FE01224021094800F0A9
:100DCC00D0FE00224FF40061064800F0CAFE00F08D
:100DDC0019F94FF4FA7000F0BDFA00BF80BD00BFE6
:100DEC0088000020000C01400010014080B500AFCD
:100DFC00104B1B68012B1AD1012204210E4800F064
:100E0C00B0FE012280210D4800F0ABFE01224021F2
:100E1C00094800F0A6FE01224FF40061064800F0DC
:100E2C00A0FE00F0EFF84FF4FA7000F093FA00BF58
:100E3C0080BD00BF88000020000C01400010014064
:100E4C0080B500AF104B1B68012B1AD10022042176
:100E5C000E4800F086FE012280210D4800F081FE34
:100E6C0000224021094800F07CFE01224FF4006171
:100E7C00064800F076FE00F0C5F84FF4FA7000F06A
:100E8C0069FA00BF80BD00BF88000020000C014043
:100E9C000010014080B500AFFFF7E2FC524B1B681D
:100EAC00002B30D000220421504800F05AFE0022C2
:100EBC0080214F4800F055FE002240214B4800F0A5
:100ECC0050FE00224FF40061484800F04AFE494BA6
:100EDC0000229A60474B9B68464A5360454B5B68BF
:100EEC00444A1360444B1B780133DAB2424B1A70FC
:100EFC00414B1B78032B02D93F4B00221A703A4B03
:100F0C0000221A6047E0384B5B68002B21D03A4B2B
:100F1C001B78032B12D0032B16DC012B02D0022BD7
:100F2C0006D011E0334B1B680133324A13600CE0DE
:100F3C00304B5B6801332F4A536006E02D4B9B68A6
:100F4C0001332C4A936000E000BF274B00225A600B
:100F5C0021E0254B9B68002B1DD0274B1B78032BC6
:100F6C0010D0032B13DC012B02D0022B05D00EE08A
:100F7C00204B1B68214A13600AE01E4B5B681F4A1A
:100F8C00536005E01B4B9B681C4A936000E000BF5C
:100F9C00154B00229A60184B1B78032B1ED801A20C
:100FAC0052F823F0C10F0008D70F0008DD0F00081E
:100FBC00E30F0008124B1B68012B11D14FF47A7010
:100FCC0000F0C8F900F0AAF80AE0FFF7E5FE08E027
:100FDC00FFF70CFF05E0FFF733FF02E000BF00E076
:100FEC0000BF00BF80BD00BF54000020000C0140BA
:100FFC000010014070000020500000201000002064
:10100C008800002080B500AF3C4B1B78002B44D0EF
:10101C003B4B1B68002B2CD1384B1B78032B12D06D
:10102C00032B16DC012B02D0022B06D011E0354B22
:10103C001B681846FFF7F0FB0CE0324B5B68184658
:10104C00FFF7EAFB06E02F4B9B681846FFF7E4FB23
:10105C0000E000BF002280212B4800F082FD01221D
:10106C004FF48051294800F07CFD254B01221A6079
:10107C0042E0224B1B781846FFF7CEFB0122802161
:10108C00214800F06EFD00224FF480511F4800F003
:10109C0068FD1B4B00221A602EE01D4B1B68002BB9
:1010AC0002D0012B14D027E01A4B1B681846FFF70F
:1010BC00B3FB00228021144800F053FD01224FF4B1
:1010CC008051124800F04DFD114B01221A6013E0C3
:1010DC00114B1B681846FFF79FFB012280210A4821
:1010EC0000F03FFD00224FF48051084800F039FD1C
:1010FC00074B00221A6000BF00BF80BD50000020CB
:10110C004C0000207000002000080140000C014041
:10111C00840000207C0000208000002080B500AFFF
:10112C00FFF770FF854B1B78042B00F2FB8001A2AC
:10113C0052F823F097110008FB1100086512000803
:10114C00C712000855110008002204217C4800F049
:10115C0008FD002280217B4800F003FD0022402185
:10116C00774800F0FEFC00224FF40061744800F058
:10117C00F8FC754B1B68754A1360734B9B68744A7B
:10118C0013606E4B00221A70D5E0704B1B68013B4C
:10119C006E4A13606E4B1B68013B6D4A1360012253
:1011AC000421674800F0DDFC00228021654800F036
:1011BC00D8FC00224021624800F0D3FC01224FF4FD
:1011CC0000615F4800F0CDFC00224FF400715D48D7
:1011DC0000F0C7FC5E4B1B68002B00F3A580574B3F
:1011EC0001221A70584B5B68594A13609CE0574BAC
:1011FC001B68013B554A1360554B1B68013B544A15
:10120C001360012204214E4800F0ABFC0022802127
:10121C004C4800F0A6FC01224021494800F0A1FCFA
:10122C0001224FF40061464800F09BFC01224FF470
:10123C000071444800F095FC444B1B68002B75DC96
:10124C003E4B02221A70404B9B68404A13603E4B47
:10125C001B683F4A136069E03C4B1B68013B3B4AEF
:10126C0013603B4B1B68013B394A1360002204217D
:10127C00334800F076FC01228021324800F071FCEA
:10128C00012240212E4800F06CFC00224FF400613A
:10129C002B4800F066FC00224FF40071294800F046
:1012AC0060FC2A4B1B68002B42DC244B03221A7077
:1012BC00254B5B68254A13603AE0244B1B68013BC5
:1012CC00224A1360224B1B68013B214A1360012206
:1012DC0004211B4800F045FC01228021194800F034
:1012EC0040FC01224021164800F03BFC00224FF448
:1012FC000061134800F035FC01224FF400711148D5
:10130C0000F02FFC114B1B68002B13DC0B4B002245
:10131C001A700D4B1B680D4A13600B4B9B680C4AE3
:10132C00136007E000BF06E000BF04E000BF02E06E
:10133C0000BF00E000BF00BF80BD00BF4B0000201D
:10134C00000C014000100140100000207C00002027
:10135C008000002080B483B000AF78607B68084ABE
:10136C0082FB03129210DB17D31A064A1360064B4A
:10137C0000221A6000BF0C37BD4680BC704700BF0E
:10138C00676666661C0000208800002080B400AFF1
:10139C00094B1B68002B0BDD074B1B68013B064AF6
:1013AC001360054B1B68002B02DC044B01221A60F6
:1013BC0000BFBD4680BC70471C0000208800002088
:1013CC0080B485B000AF154B9B69144A43F0010300
:1013DC009361124B9B6903F00103BB60BB680F4B1D
:1013EC00DB690E4A43F08053D3610C4BDB6903F08D
:1013FC0080537B607B680A4B5B68FB60FB6823F067
:10140C00E063FB60FB6843F00073FB60044AFB681D
:10141C00536000BF1437BD4680BC704700100240BB
:10142C000000014080B584B000AF78607B681B6819
:10143C00B3F1804F13D10C4BDB690B4A43F0010322
:10144C00D361094BDB6903F00103FB60FB680022ED
:10145C0000211C2000F0B3F91C2000F0CCF900BFD7
:10146C001037BD4680BD00BF0010024080B400AFF5
:10147C00FEE780B400AFFEE780B400AFFEE780B4B7
:10148C0000AFFEE780B400AFFEE780B400AF00BF52
:10149C00BD4680BC704780B400AF00BFBD4680BC69
:1014AC00704780B400AF00BFBD4680BC704780B5AC
:1014BC0000AF00F091F800BF80BD000080B500AF18
:1014CC00024800F0E5FF00BF80BD00BF8C0000208B
:1014DC0080B400AF00BFBD4680BC704780B582B001
:1014EC0000AF78607B681B68B3F1804F03D1FFF7C6
:1014FC008FFAFFF74BFF00BF0837BD4680BD0000D9
:10150C00FFF7E6FF0B480C490C4A002302E0D458C5
:10151C00C4500433C4188C42F9D3094A094C002333
:10152C0001E013600432A242FBD301F00DFBFFF784
:10153C0007FB7047000000202C000020F02B000857
:10154C002C000020D8000020FEE7000080B500AF82
:10155C00084B1B68074A43F010031360032000F08C
:10156C0023F90F2000F008F8FFF72AFF0023184694
:10157C0080BD00BF0020024080B582B000AF786013
:10158C00124B1A68124B1B7819464FF47A73B3FB43
:10159C00F1F3B2FBF3F3184600F03BF90346002BD2
:1015AC0001D001230EE07B680F2B0AD8002279684A
:1015BC004FF0FF3000F003F9064A7B6813600023FC
:1015CC0000E0012318460837BD4680BD20000020EE
:1015DC00280000202400002080B400AF054B1B78AD
:1015EC001A46054B1B681344034A136000BFBD46E3
:1015FC0080BC704728000020D400002080B400AFCD
:10160C00024B1B681846BD4680BC7047D4000020B6
:10161C0080B485B000AF78607B6803F00703FB6093
:10162C000C4BDB68BB60BA684FF6FF031340BB6022
:10163C00FB681A02BB68134343F0BF6343F40033E7
:10164C00BB60044ABB68D36000BF1437BD4680BC86
:10165C00704700BF00ED00E080B400AF044BDB68C6
:10166C001B0A03F007031846BD4680BC704700BF39
:10167C0000ED00E080B483B000AF0346FB7197F936
:10168C000730002B0BDBFB7903F01F02064997F99F
:10169C0007305B09012000FA02F241F8232000BF59
:1016AC000C37BD4680BC704700E100E080B483B0CD
:1016BC0000AF03463960FB7197F90730002B0ADB4A
:1016CC003B68DAB20C4997F907301201D2B20B44DD
:1016DC0083F800230AE03B68DAB20849FB7903F08F
:1016EC000F03043B1201D2B20B441A7600BF0C3725
:1016FC00BD4680BC704700BF00E100E000ED00E09B
:10170C0080B489B000AFF860B9607A60FB6803F010
:10171C000703FB61FB69C3F10703042B28BF0423F8
:10172C00BB61FB690433062B02D9FB69033B00E068
:10173C0000237B614FF0FF32BB6902FA03F3DA43FB
:10174C00BB681A407B699A404FF0FF317B6901FA04
:10175C0003F3D9437B680B40134318462437BD462B
:10176C0080BC704780B582B000AF78607B68013B6D
:10177C00B3F1807F01D301230FE00A4A7B68013B60
:10178C0053600F214FF0FF30FFF790FF054B002205
:10179C009A60044B07221A60002318460837BD468E
:1017AC0080BD00BF10E000E080B582B000AF786073
:1017BC007868FFF72DFF00BF0837BD4680BD80B5A8
:1017CC0086B000AF0346B9607A60FB7300237B617F
:1017DC00FFF742FF78617A68B9687869FFF790FF84
:1017EC00024697F90F3011461846FFF75FFF00BF0E
:1017FC001837BD4680BD80B582B000AF0346FB7183
:10180C0097F907301846FFF735FF00BF0837BD467C
:10181C0080BD80B582B000AF78607868FFF7A2FF1A
:10182C00034618460837BD4680BD000080B48BB017
:10183C0000AF7860396000237B6200233B6269E172
:10184C0001227B6A02FA03F3FB613B681B68FA69AD
:10185C001340BB61BA69FB699A4240F058813B68FE
:10186C005B689A4A93425ED0984A934275D8984ADC
:10187C00934258D0964A93426FD8964A934252D08C
:10188C00944A934269D8944A93424CD0924A9342D8
:10189C0063D8924A934246D0904A93425DD8122B19
:1018AC002AD8122B59D801A252F823F03319000868
:1018BC000D1900081F1900086119000867190008A4
:1018CC0067190008671900086719000867190008EC
:1018DC0067190008671900086719000867190008DC
:1018EC0067190008671900086719000867190008CC
:1018FC001519000829190008794A934213D02CE0D5
:10190C003B68DB683B6229E03B68DB6804333B6285
:10191C0024E03B68DB6808333B621FE03B68DB6814
:10192C000C333B621AE03B689B68002B02D104230A
:10193C003B6213E03B689B68012B05D108233B629B
:10194C007B68FA691A6109E008233B627B68FA69D3
:10195C005A6103E000233B6200E000BFBB69FF2B30
:10196C0001D87B6801E07B6804337B61BB69FF2B8A
:10197C0002D87B6A9B0002E07B6A083B9B003B61C0
:10198C007B691A680F213B6901FA03F3DB431A40A8
:10199C00396A3B6901FA03F31A437B691A603B68A5
:1019AC005B6803F08053002B00F0B1804D4B9B69BA
:1019BC004C4A43F0010393614A4B9B6903F00103CA
:1019CC00BB60BB68484A7B6A9B08023352F82330E1
:1019DC00FB607B6A03F003039B000F2202FA03F304
:1019EC00DB43FA681340FB607B68404A934213D098
:1019FC007B683F4A93420DD07B683E4A934207D0A6
:101A0C007B683D4A934201D1032306E0042304E0A2
:101A1C00022302E0012300E000237A6A02F00302B1
:101A2C0092009340FA681343FB602F497B6A9B0832
:101A3C000233FA6841F823203B685B6803F4801397
:101A4C00002B06D02D4B9A682C49BB6913438B6035
:101A5C0006E02A4B9A68BB69DB43284913408B602C
:101A6C003B685B6803F40013002B06D0234BDA6849
:101A7C002249BB691343CB6006E0204BDA68BB6993
:101A8C00DB431E491340CB603B685B6803F40033B7
:101A9C00002B06D0194B5A681849BB6913434B608D
:101AAC0006E0164B5A68BB69DB43144913404B6084
:101ABC003B685B6803F48033002B21D00F4B1A6812
:101ACC000E49BB6913430B6021E000BF00003210CC
:101ADC000000311000002210000021100000121034
:101AEC0000001110001002400000014000080140ED
:101AFC00000C0140001001400014014000040140A2
:101B0C000B4B1A68BB69DB43094913400B607B6ABA
:101B1C0001337B623B681A687B6A22FA03F3002B61
:101B2C007FF48EAE00BF00BF2C37BD4680BC704723
:101B3C000004014080B485B000AF78600B467B8018
:101B4C007B689A687B881340002B02D00123FB73BF
:101B5C0001E00023FB73FB7B18461437BD4680BCA9
:101B6C00704780B483B000AF78600B467B8013461F
:101B7C007B707B78002B03D07A887B681A6103E03A
:101B8C007B881A047B681A6100BF0C37BD4680BC89
:101B9C007047000080B586B000AF78607B68002B82
:101BAC0001D101236CE27B681B6803F00103002B5D
:101BBC0000F08780924B5B6803F00C03042B0CD075
:101BCC008F4B5B6803F00C03082B12D18C4B5B68BA
:101BDC0003F48033B3F5803F0BD1894B1B6803F4BE
:101BEC000033002B6CD07B685B68002B68D1012321
:101BFC0046E27B685B68B3F5803F06D1804B1B687F
:101C0C007F4A43F4803313602EE07B685B68002BC3
:101C1C000CD17B4B1B687A4A23F480331360784BCE
:101C2C001B68774A23F4802313601DE07B685B6894
:101C3C00B3F5A02F0CD1724B1B68714A43F480236F
:101C4C0013606F4B1B686E4A43F4803313600BE0D8
:101C5C006B4B1B686A4A23F480331360684B1B6818
:101C6C00674A23F4802313607B685B68002B13D0D6
:101C7C00FFF7C4FC386108E0FFF7C0FC02463B6983
:101C8C00D31A642B01D90323FAE15D4B1B6803F4CF
:101C9C000033002BF0D014E0FFF7B0FC386108E003
:101CAC00FFF7ACFC02463B69D31A642B01D9032322
:101CBC00E6E1534B1B6803F40033002BF0D100E03A
:101CCC0000BF7B681B6803F00203002B63D04C4BF6
:101CDC005B6803F00C03002B0BD0494B5B6803F0E3
:101CEC000C03082B1CD1464B5B6803F48033002B90
:101CFC0016D1434B1B6803F00203002B05D07B6805
:101D0C001B69012B01D00123BAE13D4B1B6823F069
:101D1C00F8027B685B69DB00394913430B603AE0DE
:101D2C007B681B69002B20D0364B01221A60FFF711
:101D3C0065FC386108E0FFF761FC02463B69D31A89
:101D4C00022B01D903239BE12D4B1B6803F00203EB
:101D5C00002BF0D02A4B1B6823F0F8027B685B69E0
:101D6C00DB00274913430B6015E0264B00221A6059
:101D7C00FFF744FC386108E0FFF740FC02463B6982
:101D8C00D31A022B01D903237AE11D4B1B6803F0F4
:101D9C000203002BF0D17B681B6803F00803002BB7
:101DAC003AD07B689B69002B19D0174B01221A6023
:101DBC00FFF724FC386108E0FFF720FC02463B6982
:101DCC00D31A022B01D903235AE10D4B5B6A03F0A2
:101DDC000203002BF0D0012000F09AFA1CE00A4B11
:101DEC0000221A60FFF70AFC38610FE0FFF706FCCF
:101DFC0002463B69D31A022B08D9032340E100BFEA
:101E0C000010024000004242800442429E4B5B6A3A
:101E1C0003F00203002BE9D17B681B6803F0040379
:101E2C00002B00F0A6800023FB75974BDB6903F0B9
:101E3C008053002B0DD1944BDB69934A43F08053B4
:101E4C00D361914BDB6903F08053BB60BB6801230A
:101E5C00FB758E4B1B6803F48073002B18D18B4BD6
:101E6C001B688A4A43F480731360FFF7C7FB386121
:101E7C0008E0FFF7C3FB02463B69D31A642B01D978
:101E8C000323FDE0814B1B6803F48073002BF0D01F
:101E9C007B68DB68012B06D17B4B1B6A7A4A43F0CB
:101EAC00010313622DE07B68DB68002B0CD1764BB1
:101EBC001B6A754A23F001031362734B1B6A724A47
:101ECC0023F0040313621CE07B68DB68052B0CD148
:101EDC006D4B1B6A6C4A43F0040313626A4B1B6A1A
:101EEC00694A43F0010313620BE0674B1B6A664AB5
:101EFC0023F001031362644B1B6A634A23F004034F
:101F0C0013627B68DB68002B15D0FFF777FB386119
:101F1C000AE0FFF773FB02463B69D31A41F28832A1
:101F2C00934201D90323ABE0574B1B6A03F0020326
:101F3C00002BEED014E0FFF761FB38610AE0FFF7ED
:101F4C005DFB02463B69D31A41F28832934201D9B8
:101F5C00032395E04C4B1B6A03F00203002BEED1DC
:101F6C00FB7D012B05D1484BDB69474A23F080539D
:101F7C00D3617B68DB69002B00F08180424B5B688E
:101F8C0003F00C03082B61D07B68DB69022B46D174
:101F9C003F4B00221A60FFF731FB386108E0FFF776
:101FAC002DFB02463B69D31A022B01D9032367E0B0
:101FBC00354B1B6803F00073002BF0D17B681B6A58
:101FCC00B3F5803F08D1304B5B6823F400327B685B
:101FDC009B682D4913434B602B4B5B6823F47412A5
:101FEC007B68196A7B685B6A0B43274913434B6018
:101FFC00274B01221A60FFF701FB386108E0FFF75D
:10200C00FDFA02463B69D31A022B01D9032337E0B0
:10201C001D4B1B6803F00073002BF0D02FE01C4B02
:10202C0000221A60FFF7EAFA386108E0FFF7E6FAD7
:10203C0002463B69D31A022B01D9032320E0124B31
:10204C001B6803F00073002BF0D118E07B68DB6990
:10205C00012B01D1012313E00B4B5B68FB60FB6888
:10206C0003F480327B681B6A9A4206D1FB6803F446
:10207C0070127B685B6A9A4201D0012300E0002356
:10208C0018461837BD4680BD001002400070004055
:10209C006000424280B584B000AF786039607B68E4
:1020AC00002B01D10123D0E06A4B1B6803F007031E
:1020BC003A689A4210D9674B1B6823F007026549AE
:1020CC003B6813430B60634B1B6803F007033A68D0
:1020DC009A4201D00123B8E07B681B6803F002032D
:1020EC00002B20D07B681B6803F00403002B05D069
:1020FC00594B5B68584A43F4E06353607B681B6838
:10210C0003F00803002B05D0534B5B68524A43F491
:10211C0060535360504B5B6823F0F0027B689B6804
:10212C004D4913434B607B681B6803F00103002B84
:10213C0040D07B685B68012B07D1474B1B6803F4CD
:10214C000033002B15D101237FE07B685B68022BE9
:10215C0007D1414B1B6803F00073002B09D10123FD
:10216C0073E03D4B1B6803F00203002B01D10123EC
:10217C006BE0394B5B6823F003027B685B68364984
:10218C0013434B60FFF73AFAF8600AE0FFF736FAB0
:10219C000246FB68D31A41F28832934201D90323D9
:1021AC0053E02D4B5B6803F00C027B685B689B0073
:1021BC009A42EBD1274B1B6803F007033A689A420B
:1021CC0010D2244B1B6823F0070222493B681343AF
:1021DC000B60204B1B6803F007033A689A4201D04E
:1021EC00012332E07B681B6803F00403002B08D04A
:1021FC00194B5B6823F4E0627B68DB681649134378
:10220C004B607B681B6803F00803002B09D0124B52
:10221C005B6823F460527B681B69DB000E49134337
:10222C004B6000F021F802460B4B5B681B0903F076
:10223C000F030A49CB5C22FA03F3094A1360094BDA
:10224C001B681846FFF798F9002318461037BD464F
:10225C0080BD00BF0020024000100240C42B0008CB
:10226C00200000202400002080B487B000AF0023A1
:10227C00FB600023BB6000237B6100237B60002399
:10228C003B611E4B5B68FB60FB6803F00C03042B8B
:10229C0002D0082B03D027E0194B3B6127E0FB68E9
:1022AC009B0C03F00F03174AD35C7B60FB6803F4B1
:1022BC008033002B10D0114B5B685B0C03F00103D7
:1022CC00114AD35CBB607B680D4A02FB03F2BB680E
:1022DC00B2FBF3F37B6104E07B680C4A02FB03F373
:1022EC007B617B693B6102E0054B3B6100BF3B6955
:1022FC0018461C37BD4680BC704700BF001002401A
:10230C0000127A00D42B0008E42B000800093D00D1
:10231C0080B485B000AF78600A4B1B680A4AA2FBF8
:10232C0003235B0A7A6802FB03F3FB6000BFFB68C4
:10233C005A1EFA60002BF9D100BF00BF1437BD46FE
:10234C0080BC704720000020D34D621080B582B055
:10235C0000AF78607B68002B01D1012341E07B68E2
:10236C0093F83D30DBB2002B06D17B68002283F85A
:10237C003C207868FFF756F87B68022283F83D20F2
:10238C007B681A687B6804331946104600F074FAAF
:10239C007B68012283F846207B68012283F83E206B
:1023AC007B68012283F83F207B68012283F8402060
:1023BC007B68012283F841207B68012283F842204C
:1023CC007B68012283F843207B68012283F8442038
:1023DC007B68012283F845207B68012283F83D202D
:1023EC00002318460837BD4680BD000080B485B078
:1023FC0000AF78607B6893F83D30DBB2012B01D0E5
:10240C0001233AE07B68022283F83D207B681B683D
:10241C00DA687B681B6842F00102DA607B681B6833
:10242C00184A93420ED07B681B68B3F1804F09D0D9
:10243C007B681B68144A934204D07B681B68134A60
:10244C00934211D17B681B689B6803F00703FB6008
:10245C00FB68062B10D07B681B681A687B681B68AE
:10246C0042F001021A6007E07B681B681A687B68FF
:10247C001B6842F001021A60002318461437BD464F
:10248C0080BC7047002C0140000400400008004054
:10249C0080B582B000AF78607B681B681B6903F065
:1024AC000203022B22D17B681B68DB6803F002035A
:1024BC00022B1BD17B681B686FF002021A617B68D0
:1024CC0001221A777B681B689B6903F00303002BBE
:1024DC0003D0786800F0B4F905E0786800F0A7F94B
:1024EC00786800F0B6F97B6800221A777B681B6865
:1024FC001B6903F00403042B22D17B681B68DB6887
:10250C0003F00403042B1BD17B681B686FF00402DF
:10251C001A617B6802221A777B681B689B6903F43B
:10252C004073002B03D0786800F08AF905E07868D6
:10253C0000F07DF9786800F08CF97B6800221A773E
:10254C007B681B681B6903F00803082B22D17B688E
:10255C001B68DB6803F00803082B1BD17B681B6826
:10256C006FF008021A617B6804221A777B681B687B
:10257C00DB6903F00303002B03D0786800F060F9EB
:10258C0005E0786800F053F9786800F062F97B6830
:10259C0000221A777B681B681B6903F01003102B51
:1025AC0022D17B681B68DB6803F01003102B1BD156
:1025BC007B681B686FF010021A617B6808221A771F
:1025CC007B681B68DB6903F44073002B03D07868CD
:1025DC0000F036F905E0786800F029F9786800F029
:1025EC0038F97B6800221A777B681B681B6903F03B
:1025FC000103012B0ED17B681B68DB6803F0010320
:10260C00012B07D17B681B686FF001021A61786897
:10261C00FEF764FF7B681B681B6903F08003802B4B
:10262C000ED17B681B68DB6803F08003802B07D11D
:10263C007B681B686FF080021A61786800F07BFA87
:10264C007B681B681B6903F04003402B0ED17B6831
:10265C001B68DB6803F04003402B07D17B681B68C9
:10266C006FF040021A61786800F0FCF87B681B6818
:10267C001B6903F02003202B0ED17B681B68DB68E1
:10268C0003F02003202B07D17B681B686FF020021E
:10269C001A61786800F046FA00BF0837BD4680BD65
:1026AC0080B584B000AF786039600023FB737B6821
:1026BC0093F83C30012B01D10223B4E07B6801225A
:1026CC0083F83C207B68022283F83D207B681B68E2
:1026DC009B68BB60BB6823F07703BB60BB6823F4CB
:1026EC007F43BB607B681B68BA689A603B681B6859
:1026FC00B3F5005F3ED0B3F5005F00F28780B3F511
:10270C00805F00F08680B3F5805F7FD8702B1AD085
:10271C00702B7BD8602B50D0602B77D8502B3CD0B3
:10272C00502B73D8402B58D0402B6FD8302B64D003
:10273C00302B6BD8202B60D0202B67D8002B5CD093
:10274C00102B5AD062E07B6818683B6899683B682C
:10275C005A683B68DB6800F068F97B681B689B680B
:10276C00BB60BB6843F07703BB607B681B68BA68CF
:10277C009A604FE07B6818683B6899683B685A68B8
:10278C003B68DB6800F051F97B681B689A687B68D2
:10279C001B6842F480429A603CE07B6818683B6896
:1027AC0059683B68DB681A4600F0C8F87B681B6800
:1027BC005021184600F01FF92CE07B6818683B6824
:1027CC0059683B68DB681A4600F0E6F87B681B68C2
:1027DC006021184600F00FF91CE07B6818683B6814
:1027EC0059683B68DB681A4600F0A8F87B681B68E0
:1027FC004021184600F0FFF80CE07B681A683B6833
:10280C001B681946104600F0F6F803E00123FB7331
:10281C0000E000BF7B68012283F83D207B6800222A
:10282C0083F83C20FB7B18461037BD4680BD80B436
:10283C0083B000AF786000BF0C37BD4680BC7047DA
:10284C0080B483B000AF786000BF0C37BD4680BC4D
:10285C00704780B483B000AF786000BF0C37BD46C2
:10286C0080BC704780B483B000AF786000BF0C3779
:10287C00BD4680BC7047000080B485B000AF786066
:10288C0039607B681B68FB607B68294A93420BD0DC
:10289C007B68B3F1804F07D07B68264A934203D004
:1028AC007B68254A934208D1FB6823F07003FB60D8
:1028BC003B685B68FA681343FB607B681C4A934275
:1028CC000BD07B68B3F1804F07D07B68194A9342D9
:1028DC0003D07B68184A934208D1FB6823F44073F9
:1028EC00FB603B68DB68FA681343FB60FB6823F012
:1028FC0080023B685B691343FB607B68FA681A6073
:10290C003B689A687B68DA623B681A687B689A62F3
:10291C007B68074A934203D13B681A697B681A6348
:10292C007B6801225A6100BF1437BD4680BC7047DA
:10293C00002C0140000400400008004080B487B027
:10294C0000AFF860B9607A60FB681B6A7B61FB685A
:10295C001B6A23F00102FB681A62FB689B693B61EE
:10296C003B6923F0F0033B617B681B013A6913431D
:10297C003B617B6923F00A037B617A69BB68134373
:10298C007B61FB683A699A61FB687A691A6200BFDD
:10299C001C37BD4680BC704780B487B000AFF86070
:1029AC00B9607A60FB681B6A7B61FB681B6A23F069
:1029BC001002FB681A62FB689B693B613B6923F45C
:1029CC0070433B617B681B033A6913433B617B6932
:1029DC0023F0A0037B61BB681B017A6913437B6105
:1029EC00FB683A699A61FB687A691A6200BF1C3706
:1029FC00BD4680BC704780B485B000AF786039604C
:102A0C007B689B68FB60FB6823F07003FB603A6893
:102A1C00FB68134343F00703FB607B68FA689A601A
:102A2C0000BF1437BD4680BC704780B487B000AF80
:102A3C00F860B9607A603B60FB689B687B617B697E
:102A4C0023F47F437B613B681A027B681A43BB68A3
:102A5C0013437A6913437B61FB687A699A6000BF00
:102A6C001C37BD4680BC704780B485B000AF786021
:102A7C0039607B6893F83C30012B01D1022346E08E
:102A8C007B68012283F83C207B68022283F83D207E
:102A9C007B681B685B68FB607B681B689B68BB6022
:102AAC00FB6823F07003FB603B681B68FA681343F8
:102ABC00FB607B681B68FA685A607B681B68164A67
:102ACC0093420ED07B681B68B3F1804F09D07B68B2
:102ADC001B68124A934204D07B681B68104A9342CD
:102AEC000CD1BB6823F08003BB603B685B68BA68A1
:102AFC001343BB607B681B68BA689A607B680122D1
:102B0C0083F83D207B68002283F83C200023184684
:102B1C001437BD4680BC7047002C014000040040B7
:102B2C000008004080B483B000AF786000BF0C3761
:102B3C00BD4680BC704780B483B000AF786000BFE6
:102B4C000C37BD4680BC704770B500260C4D0D4C43
:102B5C00641BA410A64209D100F022F800260A4DED
:102B6C000A4C641BA410A64205D170BD55F8043B59
:102B7C0098470136EEE755F8043B98470136F2E7E3
:102B8C00E82B0008E82B0008E82B0008EC2B0008C9
:102B9C0003460244934200D1704703F8011BF9E746
:102BAC00F8B500BFF8BC08BC9E467047F8B500BF2E
:082BBC00F8BC08BC9E467047FE
:102BC40000000000000000000102030406070809D9
:102BD40002030405060708090A0B0C0D0E0F10105A
:042BE40001020000EA
:042BE80031010008AF
:042BEC000D010008CF
:102BF00001010100010101000100080004000000C2
:102C000005000000020000000300000001000000B9
:0C2C10000024F40010000000010000008F
:040000050800150DCD
:00000001FF
